:100000000C948B0C0C94B30C0C94B30C0C94B30C9C
:100010000C94B30C0C94B30C0C94B30C0C94B30C64
:100020000C94B30C0C94B30C0C947A200C94EC202C
:100030000C94B30C0C94B30C0C94B30C0C94B30C44
:100040000C94B30C0C94850F0C94B30C0C94B30C5F
:100050000C94B30C0C94B30C0C94B30C0C94A80E2D
:100060000C94B30C0C94B30C0C94B30C0C94B30C14
:100070000C94B30C0C94B30C0C94B30C0C94B30C04
:100080000C9496100C94B30C0C94B30C0C94B30C0D
:100090000C94B30C0C94B30C0C94B30C0C94B30CE4
:1000A0000C94B30C0C94B30C0C94B30C310D340DB4
:1000B000230D270D2B0D550D550D550D380D3C0DF0
:1000C000400D460D4A0D550D500DCC0DD10DD60DE0
:1000D000E00DEA0D340E340E340EF40DFE0D080E54
:1000E000120E1F0E340E270E000000002400270001
:1000F0002A002D003000D5F08D14A1C881CFD9F190
:10010000AF200014021302120215020702080204B3
:10011000010C010601007C3300000000000000001B
:10012000C0E0E0E0C0C08080000000008080C0E04F
:10013000E0E0F0F8F8F8F8F8F8F0E0C0800000002F
:10014000000000008080C0C0E0E0E0F0F0F0F0E0EF
:10015000E0E0C08000000000008080C0C0E0E080DF
:10016000000000000000008000000000000000000F
:100170008080C0C0E0E0F0F0F8F8F8FCFCFCFEFE87
:100180007E7E7E7F7F7F7F7FFFFEFEFEFEFC7C3CCF
:10019000180000000000000060F8FCFFFFFF7F3F38
:1001A0009FDFCFE7E68E1E3F7F7F3F3F9FDFCFEF92
:1001B000E7F7F7E7CF9F3FFFFFFFE6E0F8FCFEFF22
:1001C000FF3F1F9FCFCFEFEFEFEFEFEFEFEFCFDC72
:1001D0009C3E3E7F3FBF9FDF1FFFFFFFFFFCF8708D
:1001E000787E3FBFBF3EF0F8FC7E3FBF9FCFEFE77A
:1001F000F7F3FBF9F9FDFCFCFEFEFEFEFFFFFF3FFF
:1002000007E1F8FE9F8F8703010000000000000057
:10021000000000808000010307FFFEFC01F3F7FFF0
:10022000FFFFFFFEFEFFFFFFFFFFFFFFFFFFFFFFE0
:10023000FFFFF003DFDFEFEFEFE7E7E7C0DCBF7FB3
:10024000FFFFFFFFFF0FC7F7E70F3FFFFFFFFCF0C8
:10025000FFFFFFFF00FFFFFFFF00E0FEFFFFFFFFCC
:10026000FFF8031FF0E0C78F9F1F3F3F7F7F7B7921
:1002700071F1F1F1F3F3F7F7E7E7E7E0E7EFCFDF4D
:100280009F9F3F7F7FFFFEFCF8F0E0E080E0F8FFFB
:10029000FF0706060773F9F8FEFFFFFFFFFDF307F0
:1002A0000F1F3F3F3F1F0F07013CFEFFFF7F7F00F7
:1002B0001FFFFF7F3F9FDFDFDF1F3FFF7C03FFFF4D
:1002C000FF000F0783E0F8FFFF3F1F7F7F7FFFFFE7
:1002D000FCFCFDFCFCFCFEFEFFFFFFFF7F7F7F3888
:1002E00001019DFCFCFEFEFEFEFF7F7F7F7F7F3FC6
:1002F0003F1F1F0F0F0F0F07070707030381C0E002
:10030000F87C3F0F0703010003070F1F3F3E7C7877
:10031000F0F0E0E1C3C3838707070180C0E0F0F09D
:10032000F8381C0C78F8F0E1E0C0800000071F1FCF
:100330003C3C1D1D0C040201003E3F3F3F1E1F1FA1
:100340000F078381C0C0C0C0808000000000010191
:100350000101010100000080C0C0C0C0C0C183070E
:100360000F07030101000000000080C0E0E0F0F092
:100370007878381C1C1E0E0F0707030100000000D0
:10038000000000000000000000000000000001016B
:10039000030307070F0F1F1F1F1F070100000000A7
:1003A0000001070F1F1F1F1F1F1A060E3EFEFEFC37
:1003B000F8F8E0E0E0E0E0F0FCFE7A3206070F1F1C
:1003C0001F3F3F7F7F7F7F7F7FFFFEFEFEFE7E7FA2
:1003D0007F7F3F3F1F1F0303030307070E1C787037
:1003E000E0C0E0F8FEFF3F0F07030100000000003F
:1003F00000000000000000000000000000000000FD
:1004000000000000000000000000000000000000EC
:1004100000000000000000000000000000000000DC
:1004200000000000000000000001070707070303A9
:1004300003030101000000000000000000000000B4
:1004400000000000000000000000000000000000AC
:100450000000000000000000000000000107070786
:100460000700000000000000000000000000000085
:1004700000000000000000000000000001062F0244
:1004800006303002063636060621313D2723210587
:100490000603063C06030606211E000C1E21080664
:1004A0003F3018060618303F0706030C1020100CCA
:1004B0000306061F302020301F050601013F010101
:1004C0000606272521253D1905063F01091D37068A
:1004D000061E332121112E05063F0109090F0606CC
:1004E0001E332121331E06063F03061C303F08063B
:1004F000380E070C0C070E3804063F202020050696
:100500003F0C000C330506183020301F01063F0554
:10051000063F0C0C003F06061E332129291A04064B
:100520003F010D0D04063F212D2D05063F212133EE
:100530001E06060E1F3121311306063F21212D2DE7
:1005400033070620382E232E182008120413130810
:100550000D06120702110403081312040F0B0018F2
:100560000A0CFFFFFF0303030F0FFCF00F0F0F0C2C
:100570000C0C0F0F03000D0C03071E78E0800080A9
:10058000E0783E07030000000001070E07010000AD
:1005900000000A0CFFFFFF036363636363630F0FD5
:1005A0000F0C0C0C0C0C0C0C2316000000000000AF
:1005B0008040E07078189C7C1E3E7E5E3FAFDFC7B7
:1005C000D777AFEE7E3E3E7C3C78F870E00080F05E
:1005D000F83EFF3683C12A150800000422120401E8
:1005E00007010000000000000060C00000030600DA
:1005F000383F1F1F1E050101000000000000000021
:1006000000000000000000000000000000000000EA
:100610000000000D12000080E0781E071E78E0C088
:1006200000000C0E070130F0F0F03001070E0C0056
:100630000000000000030000000000000D04120292
:10064000000F04FF000D031B1B1B11180E1411FFDC
:100650000D0416FF0C081212080E0D1A09041504D9
:1006600011180E0D041B12020E0B0E0D18FF000DBB
:1006700003FF0A080B0B0403FF13000B08040D1201
:10068000FF080D1500030403FF0E1411FF0A0C1BD5
:10069000FF0C0202000D1312080B1BFF1213080BB4
:1006A0000B0C091BFF15000DFF03000B040D0809BF
:1006B00003FF090E0D04120B031BFF0611080505AD
:1006C00008130708131BFF040006000D09001BFF99
:1006D00003040D0D081207001BFF0E16040D0E1269
:1006E0001BFF01041112070003120A08180B121B4A
:1006F000FF0F1108020A04131309091BFF0600115A
:1007000002080008021104030813121A101090F0D6
:10071000B030F0B0A0C0A0A0A0C0A0C00040081C95
:100720000C0E0F0C0404050105050104000084CC27
:100730009C3CFC8C88C8686048C840C8008011395F
:100740001C1E1F1808090B03090901090000A2C794
:100750009E36F68684C4646044C440C4008045E389
:10076000796C6F6121232606222302230001889CD5
:100770003878F8181090D0C0909080900000213305
:10078000393C3F31111316061213021300011038C1
:100790003070F0302020A080A0A080200000090F41
:1007A0000D0C0F0D050305050503050300020807E1
:1007B000492277495514490816130704FF0C0812FB
:1007C00012080E0DFF020E0D13080D1404121B105B
:1007D000180E14FF1214111508150403FF01141349
:1007E00013040D040C080412FF000F0F110E000279
:1007F00007080D0600000000003E5B4F5B3E3E6BAD
:100800004F6B3E1C3E7C3E1C183C7E3C181C577DAA
:10081000571C1C5E7F5E1C00183C1800FFE7C3E7F6
:10082000FF0018241800FFE7DBE7FF30483A060E08
:100830002629792926407F050507407F05253F5A4F
:100840003CE73C5A7F3E1C1C08081C1C3E7F1422BF
:100850007F22145F5F005F5F06097F017F0066896A
:10086000956A606060606094A2FFA29408047E04B0
:100870000810207E201008082A1C08081C2A0808D6
:100880001E101010100C1E0C1E0C30383E38300696
:100890000E3E0E06000000000000005F0000000792
:1008A000000700147F147F14242A7F2A12231308C0
:1008B000646236495620500008070300001C22419C
:1008C000000041221C002A1C7F1C2A08083E080840
:1008D00000807030000808080808000060600020F0
:1008E000100804023E5149453E00427F40007249D3
:1008F0004949462141494D331814127F1027454577
:1009000045393C4A4949314121110907364949498C
:1009100036464949291E00001400000040340000FA
:100920000008142241141414141400412214080263
:10093000015909063E415D594E7C1211127C7F49D6
:100940004949363E414141227F4141413E7F49492B
:1009500049417F090909013E414151737F08080857
:100960007F00417F41002040413F017F0814224128
:100970007F404040407F021C027F7F0408107F3E82
:100980004141413E7F090909063E4151215E7F09EF
:10099000192946264949493203017F01033F404056
:1009A000403F1F2040201F3F4038403F6314081441
:1009B0006303047804036159494D43007F41414179
:1009C0000204081020004141417F0402010204405A
:1009D00040404040000307080020545478407F28DE
:1009E0004444383844444428384444287F385454D4
:1009F000541800087E090218A4A49C787F080404F7
:100A00007800447D40002040403D007F1028440095
:100A100000417F40007C047804787C080404783826
:100A200044444438FC1824241818242418FC7C0856
:100A3000040408485454542404043F44243C4040D3
:100A4000207C1C2040201C3C4030403C4428102886
:100A5000444C9090907C4464544C440008364100CF
:100A60000000770000004136080002010204023C49
:100A70002623263C1EA1A161123A4040207A385418
:100A80005455592155557941215454784121555493
:100A9000784020545579400C1E52721239555555E4
:100AA00059395454545939555454580000457C41CF
:100AB0000002457D420001457C40F0292429F0F0E8
:100AC000282528F07C545545002054547C547C0A39
:100AD000097F4932494949323248484832324A4806
:100AE00048303A4141217A3A42402078009DA0A006
:100AF0007D39444444393D4040403D3C24FF24245A
:100B0000487E4943662B2FFC2F2BFF0929F620C076
:100B1000887E090320545479410000447D413048C7
:100B2000484A32384040227A007A0A0A727D0D190A
:100B3000317D2629292F28262929292630484D406C
:100B400020380808080808080808382F10C8ACBA68
:100B50002F102834FA00007B000008142A142222E7
:100B6000142A14089500220095AA005500AAAA5537
:100B7000AA55AA000000FF00101010FF0014141462
:100B8000FF001010FF00FF1010F010F0141414FC00
:100B9000001414F700FF0000FF00FF1414F404FC1D
:100BA000141417101F10101F101F1414141F0010FE
:100BB0001010F0000000001F101010101F10101077
:100BC00010F010000000FF10101010101010101086
:100BD000FF10000000FF140000FF00FF00001F10C6
:100BE000170000FC04F414141710171414F404F480
:100BF0000000FF00F714141414141414F700F71471
:100C00001414171410101F101F141414F4141010BF
:100C1000F010F000001F101F0000001F1400000063
:100C2000FC140000F010F01010FF10FF141414FF5B
:100C3000141010101F00000000F010FFFFFFFFFF56
:100C4000F0F0F0F0F0FFFFFF0000000000FFFF0FEA
:100C50000F0F0F0F38444438447C2A2A3E147E027A
:100C6000020606027E027E0263554941633844440F
:100C70003C04407E201E2006027E020299A5E7A5C4
:100C8000991C2A492A1C4C7201724C304A4D4D3035
:100C90003048784830BC625A463D3E494949007E5A
:100CA0000101017E2A2A2A2A2A44445F44444051F1
:100CB0004A444040444A51400000FF0103E080FFA5
:100CC000000008086B6B083612362436060F090F31
:100CD00006000018180000001010003040FF01014D
:100CE000001F01011E00191D1712003C3C3C3C0076
:100CF0000000000006011501260137014A015D01CF
:100D0000720188019F01B801D201EE010B022A0293
:100D10004B026E029302BA02E40210033F03700317
:100D2000A403DC03170455049704DD0427057505A7
:100D3000C80520067D06E0064907B8072D08A90862
:100D40002D09B9094D0AEA0A900B400CFA0CC00DA6
:100D5000910E6F0F5A1053115B1272139A14D4151F
:100D600020178018F519801B231DDE1EB420A62233
:100D7000B524E4263429A72B402E0031EA3300376E
:100D8000453ABC3D68414C456B49C84D68524F5788
:100D9000805C006210111213151617181A1C1D1F03
:100DA00021232527292C2E3134373A3E4145494EFF
:100DB00052575C62686E757B838B939CA5AFB9C4F8
:100DC000D0DCE9F70000000200090F000003040175
:100DD000000C000000000000000000000000000007
:100DE00000000005060C122D000C0602030303038D
:100DF00003030C0818183C3C7E66C381C3663C188C
:100E00003B3500C0409848985888589F419D5D9D4B
:100E10005D9D5D9B5A9A5A9A5A9A1AF6ECD8B8A0D8
:100E2000A0A0A0BC1EEEB6F6B6F6B6F6AEEEACECE2
:100E3000ACECEC5CBCF0E0000000000000001FD552
:100E4000CA95CAD58AD5CAD54A150A150A150A15EA
:100E50000A150A150A80FFFFFFFFFFFF3FBFBFBF54
:100E6000BEBEBEBEBEFEFEFE7E9EEEF6FAFAFBFBE8
:100E7000F9F8F0F0E0E0C08040C0E3636F6F6F67A7
:100E800063616060606060606060E0E0E8ECEEDF3D
:100E9000DFBFBF7F7F7F7F546A546A546A14CA04DD
:100EA000EA05F8FE0FF7FBFDFDFE7E3E3D3D7BF7BC
:100EB000EF1FFF203F7F696F6F6F6F6F6F6F6F6FF7
:100EC0006F6F6F6F6F7F7F7F7F7FBF3F9F5FAF4F82
:100ED000AF4FAF4FAF6FE0EFC0BF007F00FFFF002D
:100EE000FFFFF1E0E4C0809B9BC0E0FF00FF00003B
:100EF000F8F8FFFFFFFE7CB8D0606060C0C0C0C0E3
:100F0000C0C08183870E1DFAF5EAD5AA55AA55AA55
:100F100055AA55AB57AF5FBE79E79E7DFBF7F7EF5C
:100F2000EFEFF7F7FBFDFE7F3F00FFBF5FC1D5414D
:100F3000FE7FE15EB321A1B35F534141535F534153
:100F4000C1D35CD34FBFBF7FFEFDFA15EAA5EAA56A
:100F5000EAA5EAA5EAA5EBA6EDE959B9F1E1010197
:100F6000000000000000000003030303031F1D1F17
:100F70001C1F1F1E1E1E0E0E0E0E0E0F0F0C070343
:100F80000300000000070F0E0D0D0D0D0D0D0E0ED0
:100F90000606060606070701000000000000002004
:100FA00010000060505090A0F098CCFCFCF8F4E0E9
:100FB00000C020501020C040609028089060800041
:100FC0008000000C1414130B1F33677F7F3F5F0FEB
:100FD0000100010202010000000001010000000305
:100FE00004000060505090A0F098CCFCFCF8F4E0B5
:100FF000008040A0204080403048948448304080A9
:101000004000000C1414130B1F33677F7F3F5F0FEA
:1010100001010204040201000000000000000001C0
:1010200002000060505090A0F098CCFCFCF8F4E076
:10103000000080404080000000804040800000C0F0
:101040002000000C1414130B1F33677F7F3F5F0FCA
:10105000010304090804030103040908040301004F
:1010600001000060505090A0F098CCFCFCF8F4E037
:10107000808040A020408000000080800000008030
:101080004000000C1414130B1F33677F7F3F5F0F6A
:1010900000010204040201010609121009060101FF
:1010A000022010000040406060607070703038B8FE
:1010B0001898189A1A9A9BABDBABDBABDFAAD6ACBD
:1010C0005CA810000002020606060E0E0E0C1C1D87
:1010D000181918595859D9D5DBD5DBD5FB556B35BF
:1010E0003A15081010008480848084C4666E26BC83
:1010F000DCE0BC9C0C002101210121236676643DCB
:101100003B073D39301010489CB6A232CAA6620295
:101110002802488600020012396D454C536546404E
:10112000144012610040001010804022925072A6BC
:101130009096DC783080300030010244490A4E65D8
:1011400009693B1E0C010C000C903C010B90440003
:10115000A09043010B904600A09048028280F0903E
:101160002900C8902C0258903100C8903003E880C4
:10117000F00001904B9124002481001180004190E7
:1011800024914800258000118100419024913F0066
:101190002580000F8100429024913C0024800011A2
:1011A00081004190249148002580001181004190E8
:1011B00024913F002580000F8100429024913C0043
:1011C000248000118100419024914B002580001162
:1011D0008100419024913F002580000F81004290C2
:1011E00024913C00248000118100419024914B0007
:1011F0002580001181004190249148002580000F36
:101200008100429024913C00248000118100419093
:1012100024914B00258000118100419024914800C9
:10122000258000118100419024913F002580000F0E
:10123000810042901F915400248000118100419050
:101240001F91480025800011810041901F914800A6
:101250002580000F810042901F913C0024800011E6
:10126000810041901F91480025800011810041902C
:101270001F9148002580000F810042901F913C0083
:1012800024800011810041901F915400258000119D
:1012900081004190229148002580000F81004290FA
:1012A00022913C0024800011810041902291540041
:1012B0002580001181004190229148002580000F77
:1012C0008100429022913C002480001181004190D5
:1012D0002291540025800011810041902291480004
:1012E0002580001181004190229148001D923F000D
:1012F0000880000F81004182F0903C0001912400A1
:101300006981005191300069810008800048903C5B
:1013100000009124006981000580004B903E000090
:1013200091300069810051912400258000458100A1
:101330004F903F9130006B810051912400698100F2
:101340004280000E90300069800050903C00009177
:101350002400698100519130006B810007800048B2
:101360009024913C006B80000481004B903E000172
:101370009130006981005191240025800044810052
:1013800050903F0000913000698100519124006B22
:1013900081004280000D9030006B800050903C0036
:1013A0000191240069810051913000698100088019
:1013B0000048903C00009124006981000580004BAA
:1013C000903E00009130006B81004F9124002580F9
:1013D0000045810050903F0001913000698100512B
:1013E0009124006981004280000E903000698000E5
:1013F00050904100009122006B81004F912E005DC2
:1014000080000D81005190220069800050904300BF
:1014100000912E0069810051912200698100508065
:101420000000902E006B80004F9022006B800051D6
:10143000902E0069800050903C000091240069814A
:10144000005191300069810008800048903C000004
:101450009124006B81000480004B903E000091308D
:10146000006B810051912400248000458100509040
:101470003F00009130006981005191240069810092
:101480004380000E9030006B80004F903C00009134
:1014900024006B8100519130006981000880004870
:1014A000903C00009124006981000580004B903E33
:1014B0000000913000698100519124002580004591
:1014C00081004F903F00009130006B8100519124CA
:1014D000006981004280000E9030006980005090C9
:1014E0003C0000912400698100519130006B810023
:1014F00007800048903C00009124006B810004802C
:10150000004B903E00019130006981005191240010
:1015100024800044810050903F0000913000698198
:1015200000519124006B81004180000D9030006BD0
:10153000800050904600019126006981005191324F
:10154000005C80000D810051902600698000509061
:101550004300009132006B81004F9126006B8100A7
:10156000508000019032006980005190260069800F
:10157000005190320069800050903C00009124009E
:101580006B81004F9130005D80000D8100509046CE
:101590000001912400698100519130005C80000DB0
:1015A000810050903C0000912400698100519130ED
:1015B000005D80000D81004F904800009124006B79
:1015C0008100519130005C80000D810050903C0002
:1015D00000912400698100519130005D80000C81F0
:1015E0000050904600009124006B81004F91300024
:1015F0005D80000D810050903C00019124006981C4
:1016000000519130005C80000D8100509048000036
:10161000912400698100519130005D80000E8100AD
:101620004F903C00009124006B8100519130005C90
:1016300080000D81005090460000912400698100D7
:10164000519130005D80000C810050903C00009171
:101650002400698100519130005D80000D810050AF
:1016600090480001912400698100519130005C8014
:10167000000D810050903C000091220069810051D2
:10168000912E005D80000C81005190460000912257
:10169000006B810051912E005C80000D8100509004
:1016A0003A00009122006981002180002E903F00C5
:1016B00000912E00698100519122005D80000C8113
:1016C0000051903E0000912E006B81002180002E81
:1016D000903C0001912400698100519130005C80B0
:1016E000000D810050904600009124006981005156
:1016F0009130005D80000C810051903C00009124ED
:10170000006B8100519130005C80000D8100509091
:10171000480000912400698100519130005D8000F3
:101720000C810050903C000091240069810051918F
:1017300030005D80000D8100509046000191240032
:10174000698100519130005C80000D810050903C17
:101750000000912400698100519130005D80000CEF
:10176000810051904800009124006B81005191301C
:10177000005C80000D810050903C000091240069C5
:101780008100519130005D80000C81005090460036
:1017900000912400698100519130005D80000D812D
:1017A000004F903C0001912400698100519130006C
:1017B0005C80000D810050904800009124006981F8
:1017C00000519130005D80000C810051903C000080
:1017D0009126006B8100519132005C80000D8100E8
:1017E0005090460001912600698100519132002EEF
:1017F00080003B810050903A0000912600698100F2
:1018000051904B00009132006B8100519126002DC8
:1018100080003C810050904A0001913200698100B3
:10182000219024002E913C92309333F0903F00643D
:1018300090410064904300649046019080F0040859
:1018400002011040804010204080408008020401C6
:101850008040201002011080102040402000000035
:1018600000250028002B002E00310004040404048D
:101870000304050202020204030202020206060633
:10188000060606040402020204040301080B000217
:101890000202010009040000010202000005240008
:1018A000100105240101010424020605240600019B
:1018B0000705810310004009040100020A0000002E
:1018C00007050202400000070583024000000403F0
:1018D000090441726475696E6F204C4C430041727B
:1018E0006475696E6F204C656F6E6172646F001273
:1018F0000100020000004041233680000101020384
:101900000112010002EF0201404123368000010173
:1019100002030100823011241FBECFEFDAE0DEBFE8
:10192000CDBF11E0A0E0B1E0EEE3FFE602C005901C
:101930000D92AE3BB107D9F728E0AEEBB1E001C0A4
:101940001D92AA36B207E1F71CE0CBE8DCE004C048
:101950002197FE010E94DD30CA38D107C9F70E94E5
:1019600029230C949D370C940000CF92DF92EF92C4
:10197000FF920F931F93CF93DF936C017A018B013A
:10198000C0E0D0E0CE15DF0589F0D8016D918D0162
:10199000D601ED91FC910190F081E02DC6010995F1
:1019A000892B11F47E0102C02196ECCFC701DF9193
:1019B000CF911F910F91FF90EF90DF90CF900895FE
:1019C0000E94AF32CF93DF9300D000D0CDB7DEB707
:1019D000611571058105910579F09B01AC01698361
:1019E0003A834B835C830E94B23529813A814B81D3
:1019F0005C810E94253703C060E070E0CB010F904E
:101A00000F900F900F90DF91CF910895362F90E0B7
:101A1000FC01EC53F24F4491FC01E25CF74E24913F
:101A2000FC01E559F74E8491882309F451C0442301
:101A3000E1F150E0FA013197EF30F105B0F5EA5AE3
:101A4000FF4F0C94DD30909180009F7707C09091FC
:101A500080009F7D03C090918000977F90938000CD
:101A600024C094B59F7702C094B59F7D94BD1DC0DE
:101A7000909190009F7707C0909190009F7D03C048
:101A800090919000977F909390000FC09091C0002C
:101A90009F7703C09091C0009F7D9093C00005C0C8
:101AA0009091C200977F9093C200E82FF0E0EE0F74
:101AB000FF1FE35AF74EA591B4918FB7F894EC91BC
:101AC000311103C020952E2301C02E2B2C938FBFE4
:101AD0000895CF93DF9390E0FC01E25CF74E2491F0
:101AE000FC01E559F74E8491882361F190E0880F5D
:101AF000991FFC01E851FF4FC591D491FC01E35AB5
:101B0000F74EA591B491611109C09FB7F8948881EF
:101B1000209582238883EC912E230BC0623061F4E0
:101B20009FB7F8943881822F809583238883EC9126
:101B30002E2B2C939FBF06C08FB7F894E8812E2BD5
:101B400028838FBFDF91CF9108951F93CF93DF93A9
:101B5000182FEB0161E00E94690D209711F460E0FD
:101B600004C0CF3FD10539F461E0812FDF91CF91DF
:101B70001F910C94060DE12FF0E0EC53F24FE4912D
:101B80004E2F50E0FA013197EF30F10508F06CC0AC
:101B9000EB59FF4F0C94DD3084B5806884BDC7BD20
:101BA00068C084B5806284BDC8BD63C08091800078
:101BB000806880938000D0938900C093880059C0CA
:101BC00080918000806280938000D0938B00C093CE
:101BD0008A004FC080918000886080938000D093FD
:101BE0008D00C0938C0045C08091900080688093E8
:101BF0009000D0939900C09398003BC080919000D2
:101C0000806280939000D0939B00C0939A0031C073
:101C100080919000886080939000D0939D00C09345
:101C20009C0027C08091C00080688093C000809194
:101C3000C0008F7B8093C000C093CF001AC08091FA
:101C4000C00080628093C000C093D00012C0809119
:101C5000C20088608093C2008091C2008B7F809315
:101C6000C200C093D20005C0C038D1050CF07CCFB3
:101C700076CFDF91CF911F9108953FB7F89480916F
:101C8000DA039091DB03A091DC03B091DD0326B56C
:101C9000A89B05C02F3F19F00196A11DB11D3FBFA4
:101CA000BA2FA92F982F8827820F911DA11DB11D32
:101CB000BC01CD0142E0660F771F881F991F4A952E
:101CC000D1F708958F929F92AF92BF92CF92DF92F9
:101CD000EF92FF926B017C010E943D0E4B015C0173
:101CE000C114D104E104F104F1F00E943D0EDC01C5
:101CF000CB0188199909AA09BB09883E9340A1051F
:101D0000B10570F321E0C21AD108E108F10888EEAC
:101D1000880E83E0981EA11CB11CC114D104E104FB
:101D2000F10419F7DDCFFF90EF90DF90CF90BF90D7
:101D3000AF909F908F9008952FB7F8946091D6033D
:101D40007091D7038091D8039091D9032FBF089544
:101D50001F920F920FB60F9211242F933F938F93E0
:101D60009F93AF93BF938091D6039091D703A09197
:101D7000D803B091D9033091D50323E0230F2D3739
:101D800020F40196A11DB11D05C026E8230F02967F
:101D9000A11DB11D2093D5038093D6039093D70343
:101DA000A093D803B093D9038091DA039091DB0319
:101DB000A091DC03B091DD030196A11DB11D8093BC
:101DC000DA039093DB03A093DC03B093DD03BF91B0
:101DD000AF919F918F913F912F910F900FBE0F90D8
:101DE0001F9018958FB12CB193B130E020953095AC
:101DF00020743327A90123E0559547952A95E1F7EB
:101E0000292F30E02095309520713327359527957F
:101E100035952795242B8095807F822B0895CF922E
:101E2000DF92EF92FF920F931F93CF93E82FF0E092
:101E3000E657F74EC491E62FF0E0603330F4EC56ED
:101E4000F24FE4910E2F10E006C0EE0FFF1FEC568C
:101E5000F34F059114916801E12CF12C60E074E2DC
:101E600084EF90E0A70196010E942537BA01A901ED
:101E700041505109610971094115510581E0680717
:101E8000710580F060E970ED83E090E0A7019601B4
:101E90000E942537BA01A901415051096109710910
:101EA00083E001C081E0C130C9F0C33031F59091C9
:101EB0009100987F892B80939100509399004093D3
:101EC00098001093D4030093D30381E08093D2034E
:101ED000809171008260809371000FC090918100A9
:101EE000987F892B809381005093890040938800CC
:101EF00080916F00826080936F00CF911F910F914E
:101F0000FF90EF90DF90CF9008951F920F920FB641
:101F10000F9211242F933F938F939F93AF93BF936F
:101F2000EF93FF938091CD03882309F44DC08091F6
:101F3000C9039091CA03A091CB03B091CC03892B24
:101F40008A2B8B2B51F18091E503E091E603F09110
:101F5000E7039081892780838091C9039091CA0308
:101F6000A091CB03B091CC03181619061A061B06D4
:101F7000A4F58091C9039091CA03A091CB03B091BD
:101F8000CC030197A109B1098093C9039093CA03B7
:101F9000A093CB03B093CC0320C01092CD038091CB
:101FA0006F008D7F80936F009091E503E091E603D1
:101FB000F091E7038081282F30E0892F90E0809511
:101FC00090958223932308C08091E503E091E60376
:101FD000F091E703908189278083FF91EF91BF9172
:101FE000AF919F918F913F912F910F900FBE0F90C6
:101FF0001F901895E82FF0E0E657F74EE491E13096
:1020000019F0E33069F0089580916F008D7F80931F
:102010006F009091E503E091E603F091E70308C0BB
:102020001092D2039091E203E091E303F091E40374
:102030008081282F30E0892F90E080959095822331
:10204000932380830895E091C703F091C803BF01F3
:102050006F5F7F4F7093C8036093C7034491942FC1
:10206000907F842F8F70903819F40E94FA0FEBCF75
:10207000903981F43296F093C803E093C703FB01D3
:1020800064919091E8038917F0F667FDDCCF0E9418
:102090000F0FD9CF903E49F48091C5039091C603AC
:1020A0009093C8038093C703CECF903F19F410924A
:1020B000BE01089597FDC7CF3296F093C803E09311
:1020C000C703FB01249130E0342BA091D303B091DE
:1020D000D4030E948E376C507E4F8F4F9F4F28EE57
:1020E00033E040E050E00E9403372093CE0330936A
:1020F000CF034093D0035093D1038091CE039091AE
:10210000CF03A091D003B091D103892B8A2B8B2BC5
:1021100061F481E090E0A0E0B0E08093CE03909382
:10212000CF03A093D003B093D10308951F920F92D1
:102130000FB60F9211242F933F934F935F936F939A
:102140007F938F939F93AF93BF93EF93FF93809170
:10215000D203882349F08091E203E091E303F091F8
:10216000E4039081892780838091BE01882329F12F
:102170008091CE039091CF03A091D003B091D10371
:10218000892B8A2B8B2BC9F08091CE039091CF03A2
:10219000A091D003B091D1030197A109B109809317
:1021A000CE039093CF03A093D003B093D103892B98
:1021B0008A2B8B2B11F40E942310FF91EF91BF917A
:1021C000AF919F918F917F916F915F914F913F91CF
:1021D0002F910F900FBE0F901F90189560387105CA
:1021E00018F54034510500F5A42FA695A695A6959F
:1021F000B0E047705527B695BA2FAA27B795A7958F
:102200006A0F7B1FFC01E60FF71F81E090E001C021
:10221000880F4A95EAF7222319F09489892B03C085
:10222000809594898923848B08952F923F924F92B1
:102230005F926F927F928F929F92AF92BF92CF9256
:10224000DF92EF92FF920F931F93CF93DF93CDB75F
:10225000DEB72A970FB6F894DEBF0FBECDBF6A3047
:1022600091F4FC01E85EFB4F40813297208131817F
:1022700058E0459F200D311D112431832083329772
:1022800011821082C1C06D3009F4BEC09A8789875F
:10229000885E9B4F9C838B83DC012C90E985FA85BB
:1022A000EA5EFB4F60807180E985FA85EC5EFB4F4A
:1022B000FA83E9830081118100381105D4F0AB81E4
:1022C000BC812C91422F50E0E981FA81808191817B
:1022D000F6E02F9F800D911D1124A981BA818D9365
:1022E0009C93E985FA85E75EFB4F208121115EC052
:1022F0008BC0B0E46B16710414F7C801E5E02E9EA4
:10230000800D911D112418161906CCF6422C512C63
:10231000C301F8E02F9E800D911D11241816190697
:1023200074F655E0659F900111243F832E83E12CC4
:10233000F12C85E0E816F10441F0EE81FF81EE0D0D
:10234000FF1DEC50F84F349001C0312C630138E090
:10235000932D91709D834801882D801B8215B0F4C8
:1023600056018A2D8C19821568F42D81A501B401BE
:1023700089859A8538870E94EE10AFEFAA1ABA0AAB
:102380003885EFCFBFEF8B1A9B0AE6CF36943150DA
:10239000C40CD51C3111DCCFEFEFEE1AFE0A040D90
:1023A000151DF6E0EF16F10421F689CF6AEF6403FC
:1023B0009001659F300D112420583F4F2817390791
:1023C0001CF5A985BA85ED91FC9111970190F081DA
:1023D000E02D6AE0CD012A960FB6F894DEBF0FBE5D
:1023E000CDBFDF91CF911F910F91FF90EF90DF90C4
:1023F000CF90BF90AF909F908F907F906F905F90A5
:102400004F903F902F9009942A960FB6F894DEBF14
:102410000FBECDBFDF91CF911F910F91FF90EF9035
:10242000DF90CF90BF90AF909F908F907F906F90F4
:102430005F904F903F902F900895CF92DF92EF9250
:10244000FF92CF93DF936B017C01C42FD0E0442334
:10245000D9F0BE010D2E000C880B990B0E948D3116
:102460002DEC3CEC4CEC5DE30E9442329B01AC0154
:10247000C701B6010E94E43020E030E040EC5FE3A9
:102480000E943D321816ACF0CE010197BC01990FA5
:10249000880B990B0E948D312DEC3CEC4CEC5DE3EC
:1024A0000E9442329B01AC01C701B6010E94E43098
:1024B00004C060E070E080EC9FE3DF91CF91FF907B
:1024C000EF90DF90CF900895FF920F931F93CF93DB
:1024D000DF93F82E02E011E0C2E0D0E0F801608165
:1024E000CE010E94E536FF2031F0F8016081CE0177
:1024F0004B960E94E5360F5F1F4F2196CD31D105D7
:1025000069F7DF91CF911F910F91FF9008950F937D
:10251000CF93C82F01E0811100E022E04AE06EE392
:1025200070E08CE290E00E949E1D01E0C13009F055
:1025300000E022E04AE06EE370E088E390E00E9471
:102540009E1D01E0C23009F000E022E04AE06EE3A7
:1025500070E084E490E00E949E1DCF910F91089559
:10256000EF92FF920F931F93CF93DF93C82FD0E08A
:102570000E94B2358E01000F111F000F111F98012C
:1025800025593D4F79012AEF30E040E050E00E94AC
:1025900025370E948D31F701608371838283938395
:1025A00065E370E080E090E00E94E20CFE01E45AF6
:1025B000FD4FDC01CB010B96A11DB11D808363E0B3
:1025C00070E080E090E00E94E20CDC01CB0101961B
:1025D000A11DB11DCF5EDD4F8883E801C05EDD4FD8
:1025E000833058F06AE070E080E090E00E94E20CF6
:1025F000625E7F4F8F4F9F4F17C0823059F467E064
:1026000070E080E090E00E94E20C6E5E7F4F8F4FA2
:102610009F4F0AC065E070E080E090E00E94E20C0D
:10262000695F7F4F8F4F9F4F0E948D312AE037EDBA
:1026300043E25CE30E944232688379838A839B830E
:10264000DF91CF911F910F91FF90EF900895EAEAEB
:10265000F2E01186108616828CEB92E00E944F15F4
:102660008BEC92E00C944F15CF93DF93CAEDD2E040
:10267000198618868CEE92E00E944F1519AE18AE9E
:102680008CE193E00E944F15109243031092420395
:102690008CE493E0DF91CF910C944F15CF92DF92B1
:1026A000FF920F931F93CF93DF931F92CDB7DEB7A7
:1026B000C82E062FF42E6EE070E080E090E00E94BD
:1026C000E20CDC01CB010196A11DB11D4F2D480F7D
:1026D000842F880F880F6AE0840F49830E9478173F
:1026E00080916B03498180FD19C010E0D12CB801A5
:1026F000C6010E94C01D4F2DB801C6010E94C01D19
:1027000045E04F0DB801C6010F90DF91CF911F91A9
:102710000F91FF90DF90CF900C94C01D0F90DF9130
:10272000CF911F910F91FF90DF90CF90089510925D
:10273000A80280E28093A90282E0809310021092A6
:10274000A70288E280936A0308950F931F93CF93A3
:10275000DF930E94B41E0DE710E020E030E040EE71
:1027600057E06EE185E00E94D01768EB7BE080E0E7
:1027700090E00E94620EC1E00C2F017020E440E85E
:1027800060E070E080E090E00E949E1D0E94F114E5
:10279000D1E06AE08D2F0E94781763E070E080E05E
:1027A00090E00E94620EDF5FD63999F7CF5FC730A5
:1027B00019F76AEF70E080E090E0DF91CF911F9110
:1027C0000F910C94620E0F93082F2DE043E266E107
:1027D00070E081E190E00E94EF1E0F9108958091DA
:1027E0001E01811103C08CE991E002C082E991E0F1
:1027F00024E130E03093FE072093FD0729E130E02B
:10280000309300082093FF0721E0209301080E94E5
:10281000A21E81E00C94E3132F923F924F925F929D
:102820006F927F928F929F92AF92BF92CF92DF92E0
:10283000EF92FF920F931F93CF93DF93CDB7DEB745
:102840002B970FB6F894DEBF0FBECDBF0E94B41E0B
:102850001092FE071092FD07EE24E394F12CF09203
:102860000008E092FF0712E01093010886EA91E069
:102870000E94A21E8AE390E09093FE078093FD07DA
:10288000F0920008E092FF07109301088BEA91E0B4
:102890000E94A21E92E0692E91E0792E0AE110E0DA
:1028A0006E0188E0C80ED11CCE0101964C0122EBCE
:1028B000A22E21E0B22E39EF432E31E0532E4FE00D
:1028C000242E312C43E050E0B301C6010E94B43203
:1028D0001B86B3016D5F7F4F46E050E0C4010E944C
:1028E000B4321F82DF92CF929F928F92FF92EF922B
:1028F000BF92AF925F924F920E94C3323092FE0716
:102900002092FD07109300080093FF0791E0909339
:10291000010889EF91E00E94A21E89E0680E711CF7
:102920009FEFE91AF90A045F1F4F0FB6F894DEBF54
:102930000FBECDBF0E33110529F60E94F1140E947F
:102940009C0E4B015C010BE011E00E949C0E6B01A0
:102950007C010E94F20E882351F0C818D908EA08B9
:10296000FB0895E6C916D104E104F10448F46FE0D0
:1029700070E080E090E00E94620E0150110929F79A
:102980002B960FB6F894DEBF0FBECDBFDF91CF916F
:102990001F910F91FF90EF90DF90CF90BF90AF907D
:1029A0009F908F907F906F905F904F903F902F906F
:1029B00008950F93082F2CE04AE260E370E080E274
:1029C00090E00E94EF1E0F9108950F93082F2CE0C6
:1029D0004CE160E370E082E090E00E94EF1E0F9116
:1029E00008958091FD038EBDEEEFF3E081910DB46B
:1029F00007FEFDCF8EBD87E0ED3FF807B9F70DB4B8
:102A000007FEFDCF0895CF93C0E08091E803C8177B
:102A100028F48C2F0E94FA0FCF5FF7CF1092BE01DF
:102A2000CF9108950F931F93CF9390911E019923F7
:102A300091F1C82F80911F018C130E940315C330A0
:102A400079F038F4C13091F0C23091F409EF12E11D
:102A50000FC0C43041F0C53059F409E411E108C099
:102A600001E711E105C00FE511E102C00CE218E138
:102A7000C0931F018091BE0181110DC01093C60348
:102A80000093C5031093C8030093C7030E9423104B
:102A900081E08093BE01CF911F910F910895FC01B9
:102AA000828580FF03C091E0982792870895DF9286
:102AB000EF92FF920F931F93CF93DF93FC019285C8
:102AC00090FF41C0122FD42E7F01C62FD0E092FF7D
:102AD00008C0BE016E517109072E000C880B990BBE
:102AE00005C0BE010D2E000C880B990B0E948D3184
:102AF0009B01AC01F70160817181828193810E9409
:102B00003D3287FD20C0BE01610F711D072E000CF4
:102B1000880B990B0E948D319B01AC01F7016081FC
:102B20007181828193810E945031181664F0F701FF
:102B300020852D1540F030E010E00D0D111D81E0D5
:102B4000021713070CF480E0DF91CF911F910F91D2
:102B5000FF90EF90DF9008952F923F924F925F92F7
:102B60006F927F928F929F92AF92BF92CF92DF929D
:102B7000EF92FF920F931F93CF93DF9300D000D07B
:102B800000D0CDB7DEB7FA016490319634914E5F34
:102B90005F4F2223F9F0062D10E0E32FE695E6952E
:102BA000E695AE2FB0E0E1E0F0E0932F977011F4DE
:102BB000E0E0F0E0EA0FFB1F0E9FD0010F9FB00D89
:102BC0001E9FB00D11242A9FF0012B9FF00D1124A0
:102BD0004E0F5F1F90E0803891050CF08CC0E62FFF
:102BE000F0E0E034F1050CF086C06770B62E462E9A
:102BF000512CA3E0F595E795AA95E1F7232E2694AD
:102C000026942694312C377019F02FEF221A320AAD
:102C1000712C9F01BF017695762F66277795679572
:102C2000DB01A80FB91FBC83AB83220E331EE12C3E
:102C3000F12C68E070E0DB01A419B509BA83A9831F
:102C40002215330509F457C02830310509F453C063
:102C50008B809C80B0E88B0E911C6B817C816358CB
:102C60007B4F00E010E0061517050CF03DC0F801A1
:102C7000E80FF91FE038F105B8F5F801EE0DFF1D7A
:102C8000E40FF51FA4906B01C818D908AB81BC8173
:102C9000CA0EDB1EAA2DB0E0042C02C0AA0FBB1F77
:102CA0000A94E2F7BE83AD83D601AC90AD81BE81BC
:102CB000AA29BE83AD83AD80D601AC92BB2079F04A
:102CC0002730310561F0E491F0E0098002C0F5950C
:102CD000E7950A94E2F7DB01DC90ED29EC930F5FB6
:102CE0001F4F6F5F7F4FBFCF2F5F3F4FE60CF71C2B
:102CF0009C828B82A5CF26960FB6F894DEBF0FBEBE
:102D0000CDBFDF91CF911F910F91FF90EF90DF909A
:102D1000CF90BF90AF909F908F907F906F905F907B
:102D20004F903F902F9008950F931F93CF93DF9371
:102D3000EC018C810C851D85813851F020E0A801C3
:102D400069818881DF91CF911F910F910C94AC150F
:102D500060916B0370916C0380916D0390916E0391
:102D60002DE030E040E050E00E940337672B682BF5
:102D7000692B29F48A859B8501969B878A872A85FA
:102D8000A801698188810E94AC158A859B8503977B
:102D900014F01B861A86DF91CF911F910F91089531
:102DA0000F931F93CF93DF93EC01688349832C83A8
:102DB0001E8242960E944F15CE0181960E944F15A9
:102DC0000E94B23522E030E040E050E00E9425371A
:102DD000672B682B692B21F09F8181E089278F83E6
:102DE0000E94B23522E030E040E050E00E942537FA
:102DF000672B682B692B21F09F8182E089278F83C5
:102E000080E18A838B8384E08D838C81853078F4A4
:102E1000002311F082E001C081E08D8387E291E11F
:102E20009D878C8789E190E0998788875AC089308F
:102E300068F482E08D8385E091E19D878C8788E24C
:102E4000089F800111240A561F4F0CC0893069F475
:102E500083EE90E19D878C878BE4089F800111248D
:102E60000C501E4F198708873CC0803871F481EAE6
:102E700090E19D878C8724EF31E0029FC001039F82
:102E8000900D112488519C4F0FC0813891F48FE927
:102E90009FE09D878C8728EE33E0029FC001039F4F
:102EA000900D11248053984F9987888780E28A83F8
:102EB00018C08238B1F480E09EE09D878C8710E0D6
:102EC0000F5F1F4F28EB3BE0029FC001039F900D57
:102ED000129F900D1124998788878BE38A8385E35D
:102EE0008B83CE01DF91CF911F910F910C9494169B
:102EF000CF92DF92EF92FF921F93CF93DF93162F23
:102F000090911E01992309F443C0C82FD0E0C85303
:102F1000DF4F81E08093CD039E010D2E000C440B0A
:102F2000550B60E072E18AE790E00E942537690165
:102F30007A0181E0C81AD108E108F1088091810086
:102F4000887F816080938100112371F09E01220FA0
:102F5000331FA12FB0E00E948E3728EE33E040E00F
:102F600050E00E94033703C02FEF3FEFA901D0923A
:102F70008900C09288002093C9033093CA0340930C
:102F8000CB035093CC0380916F00826080936F00DD
:102F9000DF91CF911F91FF90EF90DF90CF90089538
:102FA0004F925F926F927F92AF92BF92CF92DF92D9
:102FB000EF92FF920F931F93CF93DF93F82EE62E9D
:102FC0005A0128013901FA0114916A0106EF040D32
:102FD0008C2D8A19811758F5FFEFCF1ADF0AF601F9
:102FE000C491CF3F19F4F5E0FF0E11C0D0E0CC0F33
:102FF000DD1FC154DE4F4881598120E06E2D8F2D99
:103000000E94AC15E881F981E491FE0EF3940E94D0
:10301000F1144114510461047104D1F2602F84E66B
:103020000E947817C301B2010E94620ED1CF4528D9
:103030004628472811F16FE080E20E9478176FE080
:1030400070E080E090E00E94620E6EE180EB0E94F2
:10305000781768E270E080E090E0DF91CF911F91F7
:103060000F91FF90EF90DF90CF90BF90AF907F9047
:103070006F905F904F900C94620EDF91CF911F91F3
:103080000F91FF90EF90DF90CF90BF90AF907F9027
:103090006F905F904F900895CF92DF92EF92FF92E2
:1030A0000F931F93CF93DF931F92CDB7DEB76C01C1
:1030B000FC01828581FF45C011E081858B34B1F030
:1030C00010E060817181828193819B01AC010E943B
:1030D000E43020E030E040E450E40E94E4309B0122
:1030E000AC0160E070E081E694E411C020E030E0E3
:1030F00040E050E4F60160817181828193810E94F9
:10310000E4309B01AC0160E070E086E194E40E9451
:10311000E3300E945C31862F6AE00E94781711111B
:1031200003C00AEE1DE002C002EF1DE0F60160815F
:103130007181828193810E945C31862F20E0A801F9
:103140000DC0F60182FD17C060817181828193817B
:103150000E945C31862F20E043EE5DE0F601608541
:103160000F90DF91CF911F910F91FF90EF90DF9023
:10317000CF900C94AC1543855485658576854E318A
:1031800051056105710508F04EE1F601E084F12C6E
:10319000608171818281938149830E945531DC0174
:1031A000CB0101E022E04981B7010E949E1D0F90F2
:1031B000DF91CF911F910F91FF90EF90DF90CF9013
:1031C0000895CF93DF93EC012A8520FF31C08C81D5
:1031D0009D81AE81BF81BC01CD0121FF9058288126
:1031E00039814A815B810E94E430688379838A83D4
:1031F0009B8320E030E040E053E40E943D3218160B
:103200001CF4CE010E944F1520E030E040EF51EC5D
:10321000688179818A819B810E94503118161CF047
:10322000CE010E944F15CE01DF91CF910C944C1826
:10323000DF91CF9108958F929F92AF92BF92CF92DC
:10324000DF92EF92FF920F93CF93DF9300D0CDB731
:10325000DEB74C0170E080E090E02A8349830E9451
:103260008B31F4016083718382839383498140872A
:103270000187C482D582E682F782F4E0AF9E5001D6
:103280001124F4018285897F8160A82A2A81220F76
:10329000A22AA28680916B0390916C03A0916D038A
:1032A000B0916E0383879487A587B687C4010F907A
:1032B0000F90DF91CF910F91FF90EF90DF90CF9023
:1032C000BF90AF909F908F900C944C182F923F928C
:1032D0004F925F926F927F928F929F92AF92BF9226
:1032E000CF92DF92EF92FF920F931F93CF93DF93D2
:1032F00000D01F92CDB7DEB79B838A83262FB42ED2
:1033000040916B0350916C0360916D0370916E035B
:10331000FC0186859785A089B1890496A11DB11D00
:1033200084179507A607B70758F4878182FF08C05E
:103330004370552766277727452B462B472B59F493
:10334000EA81FB818085918546811816190644F42F
:10335000411106C078C08B7FEA81FB818783F0CF63
:103360004423A9F04E3178F44F5FEA81FB81468314
:10337000638166958181680F828186959081890F2E
:103380000E944E1318C0EA81FB81168214C0EA81A4
:10339000FB8184818A3078F421110DC00E94B235FE
:1033A00028E532E040E050E00E942537672B682B8B
:1033B000692B09F47BC1EA81FB8184818A30C0F0EA
:1033C000803829F480818C3509F043C211C08138DE
:1033D00031F4EA81FB8180818F3650F03AC2823825
:1033E00009F037C2EA81FB818081853409F031C25E
:1033F0006A807B80FCE16F0E711C198282E3282EAB
:10340000312C412C512C43018AE0881A9108F30198
:10341000808180FD0BC0EA81FB8180859185181633
:1034200019063CF48681811104C06BC1C4010E945D
:10343000E118FFE06F0E711C8981813009F409C227
:10344000F1E0F983E0CFEA81FB81658170E08AE0F9
:1034500090E00E94C930072E000C880B990B0E9447
:10346000E20CEA81FB812481672B682B692B19F020
:103470002A3008F442C02A3068F40E94B2352EE1A6
:1034800030E040E050E00E942537672B682B692B25
:1034900009F4BAC0EA81FB8184818A30B8F5EA81F7
:1034A000FB8184818A3008F43FC0EA81FB818481FA
:1034B000803809F447C0EA81FB818481813809F4AE
:1034C0004FC0EA81FB818481803809F057C0908128
:1034D0009D3508F488C040916B0350916C03609156
:1034E0006D0370916E034370552766277727452B30
:1034F000462B472B11F491509083EA81FB81878101
:1035000082FD59CFCF010E94941655CF0E94B2354B
:1035100022E330E040E050E00E942537672B682B23
:10352000692B09F471C0BBCF0E94B2352AE030E0AC
:1035300040E050E00E942537672B682B692B09F487
:103540006AC0B3CF0E94B23522E330E040E050E0E1
:103550000E942537672B682B692B09F45CC0ABCF21
:103560000E94B23524E130E040E050E00E9425376F
:10357000672B682B692B09F44EC0A3CF813891F4D7
:10358000EA81FB8110811F3670F160916B037091AD
:103590006C0380916D0390916E0323E030E040E076
:1035A00050E013C08238E9F4EA81FB8110811634BF
:1035B000D0F060916B0370916C0380916D039091DA
:1035C0006E0325E030E040E050E00E940337672BB7
:1035D000682B692B09F091CF1150EA81FB81108390
:1035E0008CCF8A30F8F08058823008F086CF0E9465
:1035F000B23523E030E040E050E00E942537672BF1
:10360000682B692B79F079CFEA81FB81978181E082
:103610008927878344CFEA81FB81978182E08927CC
:1036200087834FCFEA81FB818081978190FF3CC0E7
:103630002FEF280FEA81FB81818191FD02C091E08B
:1036400001C09FEF890FEA81FB8194819A3028F4B1
:1036500034EA320F353138F00BC0913869F43FE964
:10366000320F3D3048F4EA81FB8120839A3020F408
:1036700028EF280F2932A0F09058923008F03DCF63
:10368000883008F43ACF482F50E0EA81FB819381DB
:1036900020E430E0291B3109241735070CF42DCF25
:1036A000EA81FB81818329CF21E0C3CF64E170E00F
:1036B00080E090E00E94E20C6B017C0168E270E027
:1036C00080E090E00E94E20C2B013C010E94B235A8
:1036D0002AE030E040E050E00E942537262FB30179
:1036E000A201485F5F4F6F4F7F4FFCE5CF0ED11CAB
:1036F000E11CF11C0B2D6C2D8A819B810E94D01640
:103700005ACE60916B0370916C0380916D03909120
:103710006E03693771058105910508F48ACEEA8147
:10372000FB811181115023812695120F24812A30AB
:10373000E0F4F981F1117DCEEA81FB81658170E0D1
:1037400088EE93E00E94C930072E000C880B990B7D
:103750000E94E20C672B682B692B09F06ACE4B2D77
:103760006DEC7CEC8CE49FE326C0203831F44B2DCB
:1037700063E373E383E39FE31EC0213809F04AC08B
:10378000A20191010E940337672B682B692B09F076
:1037900041C00E94B23522E030E040E050E00E949B
:1037A0002537672B682B692BA9F034C04B2D66E6B3
:1037B00076E686E69FE30E941D126B017C01A12C38
:1037C00001E020E0412FEA81FB816081C4010E9479
:1037D0001B192FCE0E94B23524E030E040E050E0CB
:1037E0000E942537672B682B692B01F74B2D60E072
:1037F00070E080E89FE30E941D126B017C01EA816A
:10380000FB81808166EF680FAA24A39401E020E089
:10381000412FDCCFEA81FB818481823809F009CE17
:103820004B2D6DEC7CEC8CE49FE30E941D126B0130
:103830007C0160E370E080E090E00E94E20CAB016C
:10384000BC01485F5F4F6F4F7F4FA12C01E020E02C
:10385000BACF0F900F900F90DF91CF911F910F91E2
:10386000FF90EF90DF90CF90BF90AF909F908F90A0
:103870007F906F905F904F903F902F900895FC0144
:103880008091E103811103C08FEF9FEF08959FB7EF
:10389000F89482E08093E9002091F20030E0121663
:1038A000130614F421E030E02115310559F0289871
:1038B00084E68093E0038091F10080838091F200A0
:1038C000882319F09FBFC90108958BE68093E80013
:1038D000F9CFCF93DF931F92CDB7DEB76983DC01B9
:1038E000ED91FC910280F381E02D41E050E0BE01BA
:1038F0006F5F7F4F09950F90DF91CF91089583E01F
:103900008093E9008091F200882319F08AE3809384
:10391000E8000895CF93DF931F92CDB7DEB7FC0187
:103920008485958597FD05C02FEF3FEF3587248768
:103930000BC0CE0101960E943F1C019719F48981AA
:1039400090E002C08FEF9FEF0F90DF91CF9108952D
:103950000F931F93CF93DF931F92CDB7DEB78C01E8
:10396000FC018485958597FF0EC0CE0101960E94CB
:103970003F1C019719F4298130E002C02FEF3FEF7F
:10398000F80135872487F801848595850F90DF91AC
:10399000CF911F910F910895FC018485958597FD26
:1039A0000BC09FB7F89482E08093E9008091F20009
:1039B0009FBF90E0019608959FB7F89482E08093AE
:1039C000E9008091F2009FBF90E00895DF92EF92AE
:1039D000FF920F931F93CF93DF937C01D22E8B0125
:1039E000040F111DEB0177FF0EC0C0E0D0E00BC04B
:1039F000C417D5077CF42D2DAE01B70189EE93E0F5
:103A00000E94EE102196A801013411058CF340E4C8
:103A100050E0EECFDF91CF911F910F91FF90EF908B
:103A2000DF9008958F929F92AF92BF92CF92DF92D4
:103A3000EF92FF920F931F93CF93DF935C016B0183
:103A40008A0180912701882309F45EC08091E103F7
:103A5000882309F459C08091DF0380FF05C080915D
:103A6000E00082608093E000E8018AEFF82E93E0A6
:103A7000E92E2FE3822E3AE3932E209709F43DC0DE
:103A80008FB7F894E092E9009091E80095FF06C0A6
:103A90009091F200282D291B922F01C090E08FBF3A
:103AA00091110AC0FA94FF2079F161E070E080E0A2
:103AB00090E00E94620EE1CF292F30E0C217D307B9
:103AC0000CF49C2F8FB7F894E092E9002091E80065
:103AD00025FF11C0292F30E0C21BD30BF6019150F6
:103AE00020F041914093F100FACFC20ED31E909185
:103AF000E80095FF13C08FBFC0CF5D9884E6809328
:103B0000DE031016110644F081E090E0F501938386
:103B1000828380E090E005C0C80103C09092E80075
:103B2000EACFDF91CF911F910F91FF90EF90DF903F
:103B3000CF90BF90AF909F908F900895CF92DF92DB
:103B4000EF92FF920F931F93CF93DF936B01122F8E
:103B5000EC017C01E40EF11CCE15DF0544F4202FAE
:103B6000412FB601CE010E94E61C2196F5CFDF91D0
:103B7000CF911F910F91FF90EF90DF90CF9008951C
:103B80002F923F924F925F926F927F928F929F926D
:103B9000AF92BF92CF92DF92EF92FF920F931F935B
:103BA000CF93DF9300D000D0CDB7DEB78C017B017F
:103BB000242F30E03C832B8381E090E05C01A21A4B
:103BC000B30AC9019195819591091C01220C331CFE
:103BD000A901460F571F21E0B80189EE93E00E942A
:103BE000EE10A7018B819C81481B590B21E0B80185
:103BF00089EE93E00E94EE106B817C81600F711F53
:103C000021E0A70189EE93E00E94EE10B801EB815C
:103C1000FC816E1B7F0B21E0A70189EE93E00E94DF
:103C2000EE10C12CD12C21E030E03A8329832B8186
:103C30003C81C216D3060CF06EC0B7FC0AC08B8163
:103C40009C8101979C838B8392E0290E311CA20CEE
:103C5000B31CEFEFCE1ADE0A29813A812E5F3F4F67
:103C60003A832983A20EB31E3601600E711E21E035
:103C70008B809C808E0C9F1CA401B30189EE93E085
:103C80000E94EE1028014C185D0821E0A401B20149
:103C900089EE93E00E94EE1021E047018B819C8128
:103CA000881A990AA401B30189EE93E00E94EE10EC
:103CB00021E0A401B20189EE93E00E94EE104601DA
:103CC0008E0C9F1C21E0A4016B807C80600E711E15
:103CD000B30189EE93E00E94EE1021E0A4012801D7
:103CE000EB81FC814E1A5F0AB20189EE93E00E94DB
:103CF000EE1047018C189D0821E0A401B30189EE64
:103D000093E00E94EE1021E0A401B20189EE93E05D
:103D10000E94EE108CCF0F900F900F900F90DF91BC
:103D2000CF911F910F91FF90EF90DF90CF90BF90B8
:103D3000AF909F908F907F906F905F904F903F904B
:103D40002F900895009769F0FC0101900020E9F799
:103D50003197AF01481B590BBC0189EE93E00C94DD
:103D6000B50C80E090E0089520E08DEF93E0B22F55
:103D7000B111BFEFFC010024B193B193B193B193A2
:103D80000394D1F70895DF92EF92FF920F931F9360
:103D9000CF93DF937B01D22E8C01040F111DEC0118
:103DA00097FF0EC0C0E0D0E00BC0C817D9077CF465
:103DB0002D2DA701BE0189EE93E00E94EE10219601
:103DC000C801013811058CF380E890E0EECFDF9157
:103DD000CF911F910F91FF90EF90DF900895DF92A8
:103DE000EF92FF920F931F93CF93DF93EC017B0130
:103DF000D42E122F202F0E94C31EB701610F711DF8
:103E000061507109202F4D2DCE010E94C31E202F1D
:103E1000412FB701CE010E94E61CCE018D0D911DF0
:103E2000202F412FB7010197DF91CF911F910F9163
:103E3000FF90EF90DF900C94E61CCF93DF9390916E
:103E4000E803923009F46EC0C82F292F30E0F90141
:103E5000E657F74ED491F901E15FF74F80839F5FFA
:103E60009093E80361E00E94690DD13019F0D330DE
:103E700039F158C010928000109281008091810029
:103E800088608093810080918100816080938100AF
:103E90008C2F90E0FC01E559F74EE491F0E0EE0F35
:103EA000FF1FE35AF74E259134913093E703209397
:103EB000E603FC01E25CF74E84918093E50332C097
:103EC00010929000109291008091910088608093F0
:103ED0009100809191008160809391008C2F90E0FF
:103EE000FC01E559F74EE491F0E0EE0FFF1FE35AB5
:103EF000F74E259134913093E4032093E303FC01C2
:103F0000E25CF74E84918093E2038091E80388237A
:103F100021F06CE380E00E940F0F80E0DF91CF91F1
:103F20000C94FA0FDF91CF910895809107088111C9
:103F30000DC082E08093030884E08093040810920F
:103F400006081092050881E08093070883E098E056
:103F50000895409166085091670820916408309157
:103F6000650842175307B4F49091E8009570E1F3A7
:103F70009091E80092FD19C08093F100809166084D
:103F80009091670801968F739927892B19F48EEF0A
:103F90008093E8008091660890916708019690935D
:103FA00067088093660881E0089580E00895CF92C5
:103FB000DF92EF92FF920F931F93CF93DF931F92A5
:103FC000CDB7DEB7182F062FE42E862F880F8E5F11
:103FD00099830E94A91F83E00E94A91FF12EC12E80
:103FE0009981D92E8C2D8F19801798F4F601E7FE50
:103FF00002C0849101C080810E94A91F182F80E017
:104000000E94A91F8123FFEFCF1ADF0A8111EACF97
:1040100001C081E00F90DF91CF911F910F91FF9030
:10402000EF90DF90CF900895DF92EF92FF920F9381
:104030001F93CF93DF93D82E8A017B01E40EF51EE8
:10404000EB01CE15DF0571F0D7FE03C0FE018491B0
:1040500001C088810E94A91F21968111F2CF8FEFA4
:104060009FEF01C0C801DF91CF911F910F91FF9089
:10407000EF90DF900895615030F02091F100FC0145
:1040800020830196F8CF289884E68093E003089572
:104090000F931F93CF93DF931F92CDB7DEB782E0CC
:1040A000898342E450E06CE878E180E80E941420C3
:1040B0000E94951FDC0112960D911C91139701151A
:1040C000110569F0D801ED91FC910280F381E02D9A
:1040D000BE016F5F7F4FC801099597FF07C08981B7
:1040E0000F90DF91CF911F910F910895F8010085F6
:1040F0001185E5CF1F920F920FB60F9211248F9367
:104100009F938091E1009091E100937F9093E10073
:1041100083FF0FC01092E90091E09093EB001092A2
:10412000EC0092E39093ED001092E10398E09093FD
:10413000F00082FF20C093E09093E9009091F2009C
:10414000992319F09AE39093E8009091DE03992364
:1041500039F09091DE0391509093DE03992389F119
:104160009091E003992339F09091E003915090935E
:10417000E003992341F184FF10C08091E2008E7E1C
:1041800081608093E2008091E1008F7E8093E10066
:104190008091DF038E7E806111C080FF16C0809108
:1041A000E2008E7E80618093E2008091E1008E7E4D
:1041B0008093E1008091DF038E7E81608093DF0336
:1041C00004C05D9ACDCF289AD6CF9F918F910F9042
:1041D0000FBE0F901F9018951F920F920FB60F925F
:1041E0001124CF92DF92EF92FF920F931F932F93A0
:1041F0003F934F935F936F937F938F939F93AF936F
:10420000BF93EF93FF93CF93DF93CDB7DEB76C9758
:10421000DEBFCDBF1092E9008091E80083FFFAC1B4
:1042200068E0CE0145960E943B2082EF8093E80033
:104230008D8987FF05C09091E80090FFFCCF03C0F7
:104240009EEF9093E800982F907609F0C6C09E8963
:104250002F89188D91110CC0803829F48091620843
:104260008093F10002C01092F1001092F10047C15A
:10427000422F50E0512B913051F4811140C1413017
:10428000510509F03CC1809162088D7F0BC09330CD
:1042900061F4811134C14130510509F030C1809180
:1042A00062088260809362082AC1953041F480914F
:1042B000E80080FFFCCF20682093E30020C1963007
:1042C00009F05FC0EB8CFC8C1092E900109267083B
:1042D00010926608123091F51092650810926408E9
:1042E0000E94482099E0BE016F5F7F4FDB01E92FFC
:1042F0001D92EA95E9F799831A8391E09E8390EAEB
:1043000098879AEF99872091660830916708275F10
:104310003F4F3C832B838D831092E90010926708F6
:1043200010926608F0926508E092640849E050E057
:1043300080E00E9414200E944820E1C0F0926508AD
:10434000E09264080E94951FDC011296ED90FC90AB
:104350001397E114F10409F4C0C0D701ED91FC9169
:104360000480F581E02DBE016B5E7F4FC70109958A
:10437000009719F00CF0C3C0C6C0F701E084F184C7
:10438000E8CF973009F4BFC0983021F481E08093E2
:10439000F100B5C0993009F0B2C0837009F0B3C024
:1043A000E9E4F1E081E021E036E39081992361F0D6
:1043B0008093E9002093EB0091919093EC0030936F
:1043C000ED008F5F873089F78EE78093EA001092C7
:1043D000EA008F898093E10392C08B8D9C8D1092AF
:1043E000E900109267081092660890936508809320
:1043F0006408898D811156C08E899D89913A59F43E
:10440000813209F080C047E050E060E271E080E076
:104410000E94142074C0913209F075C0833289F46F
:10442000888D90E0982F88272F89822BA0E0B0E01C
:104430008093280190932901A0932A01B0932B0126
:104440005EC0803269F48091E80082FFFCCF67E0B3
:1044500080E291E00E943B208BEF8093E80006C051
:10446000823209F04CC08F898093270180916108C6
:10447000882319F0EEEFFAE002C0E0E0F8E0809166
:10448000200190912101A0912201B0912301803B54
:104490009440A105B10509F088C08091270180FFF3
:1044A000A0C083C00E94951FDC0112960D911C9143
:1044B00013970115110539F1D801ED91FC91019087
:1044C000F081E02DBE016B5E7F4FC801099581111F
:1044D00016C0F80100851185ECCF1130C1F0133002
:1044E00091F48F89882309F455C08230E9F440E8BB
:1044F00060E18EED98E10E94D71F882321F08EEFB6
:104500008093E80087C081E28093EB0083C08B8DAD
:104510009C8D089711F410936308809163088111B2
:1045200036C06FEE78E138C0813029F440E86BE0A6
:1045300082ED98E1E0CF833031F70E94951FDC01D6
:104540001296ED90FC9013978E010F5F1F4F68013C
:10455000E114F10479F0D701ED91FC910680F78127
:10456000E02DB801C7010995080F111DF701E0847E
:10457000F184EECFD8011C92F60101900020E9F7FA
:104580003197BF016C197D0940E0C601B4CF61E0ED
:1045900079E102C06EEC78E16115710509F4B3CFE1
:1045A000FB01449150E080E833CF0FB6F894A89512
:1045B00080916000886180936000109260000FBE5F
:1045C000A895EE3F2AE0F20739F08091FE0A90911B
:1045D000FF0A9183808393CF1092FF0A1092FE0A04
:1045E0008ECFEE3F8AE0F80731F080819181909381
:1045F000FF0A8093FE0A87E797E7918380839BE019
:1046000088E10FB6F894A895809360000FBE909350
:10461000600075CF6C960FB6F894DEBF0FBECDBFAD
:10462000DF91CF91FF91EF91BF91AF919F918F91CA
:104630007F916F915F914F913F912F911F910F91BA
:10464000FF90EF90DF90CF900F900FBE0F901F90D4
:104650001895CF93DF93CDB7DEB72B970FB6F894AD
:10466000DEBF0FBECDBF789484B5826084BD84B5B3
:10467000816084BD85B5826085BD85B5816085BD5D
:1046800080916E00816080936E0010928100809115
:10469000810082608093810080918100816080939D
:1046A00081008091800081608093800080919100E2
:1046B000826080939100809191008160809391004D
:1046C000809190008160809390008091C10084600F
:1046D0008093C1008091C10082608093C10080916D
:1046E000C10081608093C1008091C300816080938C
:1046F000C3008091C00082608093C0008091C2009E
:1047000081608093C20080917A00846080937A00F7
:1047100080917A00826080937A0080917A00816033
:1047200080937A0080917A00806880937A0010925A
:10473000E103109262081092DF038091D70081603C
:104740008093D70080EA8093D80089B5806189BDC5
:1047500089B5826089BD09B400FEFDCF61E070E0DB
:1047600080E090E00E94620E8091D8008F7C806192
:104770008093D8008091E000807F8093E00080915A
:10478000E1008E7E8093E1008DE08093E200559AF7
:10479000209AEEEFFFE7859194918B3F9C4D19F4A1
:1047A00081E0809361081FB7F894809170038111B4
:1047B00027C0ECE7F8E18491EFE4F8E19491E82F69
:1047C000F0E0EE0FFF1FE851FF4FA591B491EC917F
:1047D000E92321F461E081E10E94060D61E081E1BD
:1047E0000E94690D8CB580618CBD8CB580648CBDD8
:1047F00061E08FE00E94690D61E080E10E94690D37
:10480000809170038F5F809370031FBF03E011E0FE
:10481000F80184910E5F1F4F31966491882319F03F
:104820000E94690DF5CF61E086E00E94060D61E00F
:1048300070E080E090E00E94620E60E086E00E94FE
:10484000060D6AE070E080E090E00E94620E61E098
:1048500086E00E94060DE7E7F8E1E491F0E0EE0F54
:10486000FF1FE35AF74E85919491909376038093BE
:104870007503EAE4F8E1E491E0937403EFE6F8E10C
:10488000E491F0E0EE0FFF1FE35AF74E859194910B
:104890009093730380937203E2E4F8E1E491E09370
:1048A00071038CB58C7F8CBD8DB581608DBDE09121
:1048B0007503F0917603908180917403982B908317
:1048C000A0917203B09173032C9190917103909514
:1048D00092239C939081809589238083E6EFF0E07A
:1048E00021E0E330F20749F084918EBD00000DB461
:1048F00007FEFDCF8EB53196F3CFE0917203F091B4
:104900007303908180917103892B8083E0917503FB
:10491000F091760390818091740380958923808340
:104920008091640081608093640080916400826063
:10493000809364008091640080688093640080911B
:10494000640080648093640080916500816080933E
:1049500065000E94F20E87FF1AC080E094E01EBC42
:1049600000000DB407FEFDCF2EB50197C1F760E042
:1049700070E08AE00E94A50D60E070E08BE00E948C
:10498000A50D60E070E089E00E94A50DFFCF85E0F5
:104990000E941D1F8DE00E941D1F1092BE0182E02B
:1049A00090E00E94DD36882369F080916400877F63
:1049B0008093640080916500877F8093650081E02B
:1049C00080936F0380E090E00E94DD368E3F91F48B
:1049D000E2E0EE2EE1E0FE2E02E010E0C8010E94CF
:1049E000DD36D7018D937D010F5F1F4F0D3111050E
:1049F000A9F708C081E00E9464126EEF80E090E0A9
:104A00000E94E5360E94B41E20E046E151E068E0D5
:104A100082E00E94AC150E94F114809164008E7FA8
:104A20008093640087EC80937C0080E280937B001D
:104A300062E070E080E090E00E94620E80917A0077
:104A4000806480937A0080917A0086FDFCCF00918B
:104A5000780010917900009510958EE580937C0088
:104A600062E070E080E090E00E94620E80917A0047
:104A7000806480937A0080917A0086FDFCCFE0907C
:104A80007800F09079000E943D0E9B01AC012095CA
:104A9000309540955095E094F094E09ED001E19ED1
:104AA000B00DF09EB00D11240E9444376B017C01C3
:104AB0000E943D0E6C0D7D1D8E1D9F1D61157105A3
:104AC0008105910511F00E94B735809164008160E5
:104AD0008093640081E00E9412156EEB7AE080E022
:104AE00090E00E94620E0E94971310E0812F0E94B6
:104AF000B0121F5F1F30D1F781E495E09093C001A1
:104B00008093BF0189E395E09093C2018093C10136
:104B100081E395E09093C4018093C3018AE295E01C
:104B20009093C6018093C50184E295E09093C801FB
:104B30008093C7018EE195E09093CA018093C901EB
:104B400086E195E09093CC018093CB018FE095E0D6
:104B50009093CE018093CD018CE095E09093D001AD
:104B60008093CF0185E095E09093D2018093D101AD
:104B70008EEF94E09093D4018093D30188EF94E07A
:104B80009093D6018093D5018EEE94E09093D80156
:104B90008093D70186EE94E09093DA018093D90157
:104BA0008EED94E09093DC018093DB0187ED94E03F
:104BB0009093DE018093DD018FEC94E09093E0010F
:104BC0008093DF0188EC94E09093E2018093E1010F
:104BD00080EC94E09093E4018093E30189EB94E00E
:104BE0009093E6018093E50181EB94E09093E801D6
:104BF0008093E70188EA94E09093EA018093E901C9
:104C00008EE994E09093EC018093EB0186E994E0C7
:104C10009093EE018093ED018FE894E09093F00182
:104C20008093EF0187E894E09093F2018093F10183
:104C300083E894E09093F4018093F3018FE794E08C
:104C40009093F6018093F5018CE794E09093F8013E
:104C50008093F70181E192E0BFE0B80FBA870E942C
:104C6000B41E80910001882309F446C00CE310E0D3
:104C700020E030E049E756E060E080E00E94D01795
:104C80000CE310E020E030E046E656E06AE080E029
:104C90000E94D0170CE310E020E030E04CE556E035
:104CA00064E180E00E94D01768EE73E080E090E05D
:104CB0000E94620E0CE310E020E030E04AE456E08F
:104CC00068E280E00E94D01768EE73E080E090E038
:104CD0000E94620E04EB10E020E030E04CE356E06E
:104CE00062E380E00E94D01764EC79E080E090E01D
:104CF0000E94620E109200010E949C0E6B017C01CA
:104D000014E6412C512C60E6662E62E4762E812C4E
:104D1000912C70E8A72E72E4B72E0E94B41EC50134
:104D2000B4010E945C3120E043E156E087E20E943A
:104D3000AC1529E23CE54FE05DE3C301B2010E94FE
:104D4000E4302B013C010E945C3120E048EA55E050
:104D500082E30E94AC150E94F114175E65E0812F7A
:104D60000E9478176AE070E080E090E00E94620E96
:104D70002DEC3CEC4CE45EE3C501B4010E94E33051
:104D80004B015C01143D49F620E042E955E060E149
:104D900084E00E94AC1520E046E755E060E184E144
:104DA0000E94AC1520E040E655E060E18BE30E94F4
:104DB000AC1520E042E955E060E18DE40E94AC15BD
:104DC00020E048EA55E06EE08DE50E94AC156AEF00
:104DD00070E080E090E00E94620E0E94F11400E01A
:104DE00010E098014BE555E063E384E00E94D017A2
:104DF00081E00E94E51400E010E0980143E555E0F1
:104E000063E382E20E94D01700E010E098014AE4D8
:104E100055E063E38FE40E94D017412C512C3201FE
:104E2000332433940E949C0E4B015C01DC01CB01C6
:104E30008C199D09AE09BF0985369105A105B105FB
:104E400070F10E94F20E83FD39C00E94F20E82FDC5
:104E500035C00E94F20E85FF1EC0332009F4F1C058
:104E6000E2E03E120FC000E02CE042E360E370E0BD
:104E70008DE490E00E94EF1E81E00E94D9140E9410
:104E8000F1141886750164016AEF70E080E090E02B
:104E90000E94620E38840E94F20E86FDDDC08FEF04
:104EA000481A580A680A780A90E849169AE1590699
:104EB00096E06906710409F0B5CFB9C0F1E03F1280
:104EC00083C70E94031510926B0310926C0310921B
:104ED0006D0310926E031092C1031092C2031092E0
:104EE000C3031092C4031092BD031092BE0310922C
:104EF000BF031092C0031092B9031092BA0310922C
:104F0000BB031092BC031092B5031092B60310922B
:104F1000B7031092B80384E0809301010E949713B5
:104F20001092B4031092B3030E9434130E9427130B
:104F300087E793E00E944F1586E893E00E944F15A3
:104F400085E993E00E944F1584EA93E00E944F1593
:104F50000E94A513912CB12C10E0809101018111C8
:104F6000ABC00E9403150E9403150E94B41E84E08A
:104F70000E941215A8E2EA2EF12CF092FE07E092B0
:104F8000FD078FE090E0909300088093FF0712E008
:104F9000109301088FE491E00E94A21E0E94F11478
:104FA00068EE73E080E090E00E94620EF092FE07EF
:104FB000E092FD0783E290E0909300088093FF0762
:104FC0001093010884E591E00E94A21E0E94F11452
:104FD00064E971E180E090E00E94620E1F82B5E01A
:104FE000EB2EB1E0FB2E10E046E050E0B701CE0121
:104FF00001960E94B4328090B5039090B603A090C1
:10500000B703B090B8034AE050E060E070E0CE0132
:1050100001960E94C035681579058A059B0508F43C
:10502000DEC31F5FB9E0EB0EF11C1330E9F60E94FE
:105030000C1480E090E0892B09F411CE0E9400004E
:105040000ECE80E00E94D91481E00E94E5140E94F7
:10505000F114F1E0F88716CF332071F0CC24C3941B
:105060003C1020C080E00E94E51481E00E94D91429
:105070000E94F114198616C000E02CE04AE260E3B9
:1050800070E080E290E00E94EF1E01E02CE042E33D
:1050900060E370E08DE490E00E94EF1E0E94F11446
:1050A00022E02987750164016AEF70E080E090E0FA
:1050B0000E94620E3984F3CE0E94B41E80916B036D
:1050C00090916C03A0916D03B0916E03BC01CD0172
:1050D0006F5F7F4F8F4F9F4F60936B0370936C0395
:1050E00080936D0390936E0324E130E040E050E044
:1050F0000E940337672B682B692BD1F48091B5038D
:105100009091B603A091B703B091B8030196A11D89
:10511000B11D8093B5039093B603A093B703B093EA
:10512000B80380916A03883218F48F5F80936A0312
:1051300001E025E048E261E070E088E290E00E9452
:10514000EF1E25E040916A0361E070E088E290E0A4
:105150000E949E1D8091B8038F938091B7038F9317
:105160008091B6038F938091B5038F93AEE6B1E043
:10517000BF93AF93A9EFB1E0BF93AF930E94C33247
:105180001092FE071092FD07109200081092FF0780
:1051900081E08093010889EF91E00E94A21E409176
:1051A000A7020FB6F894DEBF0FBECDBF41113EC1BE
:1051B0000E94F20E86FF05C08091A8028B3108F490
:1051C0008FC40E94F20E85FF04C08091A802811155
:1051D0008BC48091F0039091F10369E070E00E942C
:1051E000B53001E0892B09F000E00E94F20E87FF44
:1051F00010C08091A902893018F081508093A902D3
:10520000002339F080911002882319F08150809397
:1052100010020E94F20E84FF10C08091A902803318
:1052200018F48F5F8093A902002339F08091100257
:10523000843018F48F5F809310020E94F20E83FF77
:1052400058C080916B0390916C03A0916D03B09155
:105250006E0381359105A105B10508F44AC0C090DF
:10526000C103D090C203E090C303F090C403AC012B
:10527000BD014B54510961097109C416D506E606F2
:10528000F706B8F530916A033C3098F18093C1037A
:105290009093C203A093C303B093C40340E050E0D3
:1052A000CA0189589C4FDC011A962C9120FD1CC024
:1052B0004091A9024C5F6091A802605FA12CC12CB3
:1052C000D12C50E2E52E50E4F52E0BE421E03B8793
:1052D0000E941B193B853C3021F03C5030936A03FF
:1052E00008C010926A0305C0415F5F4F4C335105FF
:1052F000B9F60E94F20E82FF42C040916B035091BA
:105300006C0360916D0370916E03DB01CA01C79756
:10531000A109B109C090BD03D090BE03E090BF03C6
:10532000F090C003C816D906EA06FB0640F5409384
:10533000BD035093BE036093BF037093C00320E08E
:1053400030E0413551056105710508F4D1C3C9014B
:1053500089589C4FDC011A96EC91E0FDC9C340913D
:10536000A902495F6091A802605FA12CC12CD12CD9
:1053700050E4E52EFE2C08E221E00E941B190E9459
:10538000F20E87FD1CC00E94F20E84FD18C08091B1
:10539000F0039091F1036CE070E00E94B530892B2E
:1053A00071F480911002833018F0815080931002C4
:1053B00080911002823018F48F5F80931002C090A9
:1053C000B903D090BA03E090BB03F090BC03C114C2
:1053D000D104E104F104F9F060916B0370916C0366
:1053E00080916D0390916E032B013C01B2EC4B1A3E
:1053F000B1E05B0A610871084C145D046E047F041F
:1054000050F423E030E040E050E00E940337672B87
:10541000682B692B11F5209110024CE057E0609148
:10542000A9028091A8020E94AC1517C06091A90240
:10543000685F8091A802885F0E944E138091A70246
:10544000823320F48F5F8093A70207C0809101010F
:105450008150809301010E949713E0EEF2E0828177
:105460009381181619060CF04AC38081811147C335
:1054700081E09091B403911141C09091B3039431B4
:1054800008F441C0111110C091E0F82EF926F092F5
:10549000B403FF20C9F10B2D20E84CE161E88AEA52
:1054A00092E00E94D0162DC09D3268F1123088F42F
:1054B00091E0F82EF926F092B403FF2011F10B2DA4
:1054C00021E848E161E88AEA92E00E94D01612E001
:1054D0001BC09B34C0F01330B1F091E0F82EF926D8
:1054E000F092B403FF2081F00B2D22E84AE061E83E
:1054F0008AEA92E00E94D01613E006C0FF24F394DB
:1055000003C011E001C0F12C6091B40381E0682771
:105510004B2D8AEA92E00E9466194AEDC42E42E0C1
:10552000D42E4B2D6F2DC6010E946619E0E3CE0EDE
:10553000D11CFAE6CF16F3E0DF0699F78091C1039C
:105540009091C203A091C303B091C403813591052A
:10555000A105B10560F48091BD039091BE03A091B7
:10556000BF03B091C003CD97A105B10580F087E7D7
:1055700093E00E94E11886E893E00E94E11885E933
:1055800093E00E94E11884EA93E00E94E1189CE510
:10559000492E92E0592E2BE6222E22E0322E3101A6
:1055A00031E1E32E32E0F32ED7014D917D01F2017E
:1055B000C1902F01D3016D917D918D919D913D0100
:1055C000D12C4B870E945531DC01CB0121E04B856A
:1055D000B6010E94C31EBA85BE11E6CF98E700E06F
:1055E00080910101081748F420E04EEA57E060E09E
:1055F000892F9B870E94AC159B850F5F9A500430C2
:1056000079F70E94F11480E2C82E82E0D82EE12CB6
:10561000F12CF101408051806280738020E030E005
:1056200040E85FEBC301B2010E94503187FF27C001
:105630008E2D0E94B0120E94B23524E130E040E08D
:1056400050E00E94253760587F4F8F4F9F4F0E9438
:105650008D31D1016D937D938D939C93139765E369
:1056600070E080E090E00E94E20CDC01CB010B9640
:10567000A11DB11DF701E45AFD4F80830FC0F60153
:105680002081318142815381C301B2010E94E33004
:10569000D1016D937D938D939C931397BFEFEB1A7C
:1056A000FB0AE4E02E0E311CF4E0CF0ED11C2FE0FB
:1056B000E216F10409F0ADCF612C712CAA24A39459
:1056C00088248394C30189589C4F6C01DC011A968D
:1056D0008C9180FD08C0BFE06B0E711CECE36E1670
:1056E000710481F774C08091B4038823A9F080917C
:1056F000B2029091B302181619066CF70091AD0230
:105700002091AC024091AB026091AA02C6010E94B6
:1057100057158111FCC1DFCF01EEE02E02E0F02E23
:10572000D70111968D919C911297181619060CF0BD
:1057300044C000E120E1F701369740813197608154
:10574000C6010E9457158823C1F1C6010E944F155A
:10575000D60119968C914091B5035091B603609192
:10576000B7037091B803480F511D611D711D40931F
:10577000B5035093B6036093B7037093B80390E0FA
:10578000F70121813281281739070CF0F7C2F701A0
:10579000128211823197A0828091B3038F5F809330
:1057A000B3034C595F4F6F4F7F4F4093B5035093F6
:1057B000B6036093B7037093B803F0E3EF0EF11CE8
:1057C00021E7E21623E0F20609F0AACF84CF809108
:1057D000B002823008F4F4C11092B403F1C1153064
:1057E00009F425CC0E949C0E2B013C0101E40983A5
:1057F0000A830B830E94B41E88E190E09093FE0719
:105800008093FD0781E090E0909300088093FF076C
:1058100062E0D62ED092010889E591E00E94A21E96
:105820008091B8038F938091B7038F938091B603D3
:105830008F938091B5038F938EE691E09F938F9322
:1058400079EFE72E71E0F72EFF92EF920E94C332BC
:105850008CE190E09093FE078093FD0786E190E055
:10586000909300088093FF07D0920108C7010E941F
:10587000A21E1F920F931F920F931F920F9381E608
:1058800091E09F938F93FF92EF920E94C3328CE23C
:1058900090E09093FE078093FD078DE290E0909357
:1058A00000088093FF07D0920108C7010E94A21E42
:1058B00080E00E9487120E94F1140FB6F894DEBFB8
:1058C0000FBECDBFE12CF12CE1E62E2EE1E03E2E05
:1058D000F9EFCF2EF1E0DF2E0E949C0E4B015C0110
:1058E000DC01CB0184199509A609B7098536910514
:1058F000A105B10588F30E94F20E83FF10C0F2E00B
:10590000EF16F10444F42FEFE21AF20A8E2D0E94F2
:10591000871200E001C001E02401350101C000E070
:105920000E94F20E85FF0BC0E114F10431F081E01A
:10593000E81AF1088E2D0E948712240135010E9479
:10594000F20E86FF0CC092E0E916F10434F4AFEFDA
:10595000EA1AFA0A8E2D0E948712240135010E944C
:10596000F20E87FF37C0E1E0F0E0EC0FFD1FEE0D17
:10597000FF1D8081803619F4B0E2B08302C08F5FD2
:1059800080838B811F928F938A811F928F9389814D
:105990001F928F933F922F92DF92CF920E94C33239
:1059A000ECE2F0E0F093FE07E093FD078DE290E07B
:1059B000909300088093FF0792E09093010889EF8D
:1059C00091E00E94A21E240135010FB6F894DEBFBB
:1059D0000FBECDBF0E94F20E84FF37C0E1E0F0E0C1
:1059E000EC0FFD1FEE0DFF1D8081803219F4B0E633
:1059F000B08302C0815080838B811F928F938A81F4
:105A00001F928F9389811F928F933F922F92DF92E3
:105A1000CF920E94C332ECE2F0E0F093FE07E093F5
:105A2000FD078DE290E0909300088093FF0792E0DD
:105A30009093010889EF91E00E94A21E2401350194
:105A40000FB6F894DEBF0FBECDBF0E94F114002345
:105A500009F442CF8091B8038F938091B7038F935D
:105A60008091B6038F938091B5038F938B811F92A2
:105A70008F938A811F928F9389811F928F9388E6DB
:105A800091E09F938F9389EF91E09F938F930E9472
:105A9000C3320FB6F894DEBF0FBECDBF29E0129F10
:105AA000F0011124123028F0A9EFB1E0EE5FFE4FB3
:105AB0000DC081E190E0DC01AE5FBE4F2C911996E4
:105AC0002C9301978E179F07B4F7EECF8D9181939A
:105AD00082E0A230B807D1F780E00E946412A7CA22
